{
  "contractName": "CrowdFund",
  "abi": [
    {
      "inputs": [
        {
          "internalType": "string",
          "name": "name",
          "type": "string"
        },
        {
          "internalType": "uint256",
          "name": "targetAmount",
          "type": "uint256"
        },
        {
          "internalType": "uint256",
          "name": "durationInmin",
          "type": "uint256"
        },
        {
          "internalType": "address",
          "name": "beneficiary",
          "type": "address"
        }
      ],
      "payable": false,
      "stateMutability": "nonpayable",
      "type": "constructor"
    },
    {
      "constant": true,
      "inputs": [
        {
          "internalType": "address",
          "name": "",
          "type": "address"
        }
      ],
      "name": "amounts",
      "outputs": [
        {
          "internalType": "uint256",
          "name": "",
          "type": "uint256"
        }
      ],
      "payable": false,
      "stateMutability": "view",
      "type": "function"
    },
    {
      "constant": true,
      "inputs": [],
      "name": "beneficiary",
      "outputs": [
        {
          "internalType": "address",
          "name": "",
          "type": "address"
        }
      ],
      "payable": false,
      "stateMutability": "view",
      "type": "function"
    },
    {
      "constant": true,
      "inputs": [],
      "name": "collected",
      "outputs": [
        {
          "internalType": "bool",
          "name": "",
          "type": "bool"
        }
      ],
      "payable": false,
      "stateMutability": "view",
      "type": "function"
    },
    {
      "constant": true,
      "inputs": [],
      "name": "fundingDeadline",
      "outputs": [
        {
          "internalType": "uint256",
          "name": "",
          "type": "uint256"
        }
      ],
      "payable": false,
      "stateMutability": "view",
      "type": "function"
    },
    {
      "constant": true,
      "inputs": [],
      "name": "name",
      "outputs": [
        {
          "internalType": "string",
          "name": "",
          "type": "string"
        }
      ],
      "payable": false,
      "stateMutability": "view",
      "type": "function"
    },
    {
      "constant": true,
      "inputs": [],
      "name": "state",
      "outputs": [
        {
          "internalType": "enum CrowdFund.State",
          "name": "",
          "type": "uint8"
        }
      ],
      "payable": false,
      "stateMutability": "view",
      "type": "function"
    },
    {
      "constant": true,
      "inputs": [],
      "name": "targetAmount",
      "outputs": [
        {
          "internalType": "uint256",
          "name": "",
          "type": "uint256"
        }
      ],
      "payable": false,
      "stateMutability": "view",
      "type": "function"
    },
    {
      "constant": true,
      "inputs": [],
      "name": "totalCollected",
      "outputs": [
        {
          "internalType": "uint256",
          "name": "",
          "type": "uint256"
        }
      ],
      "payable": false,
      "stateMutability": "view",
      "type": "function"
    },
    {
      "constant": false,
      "inputs": [],
      "name": "contribute",
      "outputs": [],
      "payable": true,
      "stateMutability": "payable",
      "type": "function"
    }
  ],
  "bytecode": "0x608060405234801561001057600080fd5b506040516106b53803806106b58339818101604052608081101561003357600080fd5b810190808051604051939291908464010000000082111561005357600080fd5b8382019150602082018581111561006957600080fd5b825186600182028301116401000000008211171561008657600080fd5b8083526020830192505050908051906020019080838360005b838110156100ba57808201518184015260208101905061009f565b50505050905090810190601f1680156100e75780820380516001836020036101000a031916815260200191505b50604052602001805190602001909291908051906020019092919080519060200190929190505050839350670de0b6b3a764000083029250603c820261013161016860201b60201c565b016002819055508090506000600360146101000a81548160ff0219169083600381111561015a57fe5b021790555050505050610170565b600042905090565b6105368061017f6000396000f3fe6080604052600436106100865760003560e01c806384bcefd41161005957806384bcefd414610202578063953b8fb814610231578063c19d93fb1461025c578063d7bb99ba14610295578063e29eb8361461029f57610086565b806306fdde031461008b57806338af3eed1461011b57806355a3b2c114610172578063796b23bb146101d7575b600080fd5b34801561009757600080fd5b506100a06102ca565b6040518080602001828103825283818151815260200191508051906020019080838360005b838110156100e05780820151818401526020810190506100c5565b50505050905090810190601f16801561010d5780820380516001836020036101000a031916815260200191505b509250505060405180910390f35b34801561012757600080fd5b50610130610368565b604051808273ffffffffffffffffffffffffffffffffffffffff1673ffffffffffffffffffffffffffffffffffffffff16815260200191505060405180910390f35b34801561017e57600080fd5b506101c16004803603602081101561019557600080fd5b81019080803573ffffffffffffffffffffffffffffffffffffffff16906020019092919050505061038e565b6040518082815260200191505060405180910390f35b3480156101e357600080fd5b506101ec6103a6565b6040518082815260200191505060405180910390f35b34801561020e57600080fd5b506102176103ac565b604051808215151515815260200191505060405180910390f35b34801561023d57600080fd5b506102466103bf565b6040518082815260200191505060405180910390f35b34801561026857600080fd5b506102716103c5565b6040518082600381111561028157fe5b60ff16815260200191505060405180910390f35b61029d6103d8565b005b3480156102ab57600080fd5b506102b46104fb565b6040518082815260200191505060405180910390f35b60008054600181600116156101000203166002900480601f0160208091040260200160405190810160405280929190818152602001828054600181600116156101000203166002900480156103605780601f1061033557610100808354040283529160200191610360565b820191906000526020600020905b81548152906001019060200180831161034357829003601f168201915b505050505081565b600360009054906101000a900473ffffffffffffffffffffffffffffffffffffffff1681565b60046020528060005260406000206000915090505481565b60025481565b600560009054906101000a900460ff1681565b60015481565b600360149054906101000a900460ff1681565b60008060038111156103e657fe5b600360149054906101000a900460ff16600381111561040157fe5b14610474576040517f08c379a000000000000000000000000000000000000000000000000000000000815260040180806020018281038252600d8152602001807f496e7661696c642053746174650000000000000000000000000000000000000081525060200191505060405180910390fd5b34600460003373ffffffffffffffffffffffffffffffffffffffff1673ffffffffffffffffffffffffffffffffffffffff1681526020019081526020016000206000828254019250508190555034600660008282540192505081905550600154600654106104f8576001600560006101000a81548160ff0219169083151502179055505b50565b6006548156fea265627a7a723158201664c977eed53e52d2f6d35e0da87b103568b10365ea4bdd0fd844253ab1a14464736f6c63430005100032",
  "source": "pragma solidity >=0.4.22 <0.9.0;\n\ncontract CrowdFund{\n    //States for controll the contract in all fases\n    enum State {\n        OnGoing,Failed,Succedded,PaidOut\n    }\n\nstring public name;\nuint public targetAmount;\nuint public fundingDeadline;\naddress public beneficiary;\nState public state;\n\n//Funds list\nmapping(address=>uint) public amounts;\n//If collected or not\nbool public collected;\n//How many Contract Collected money\nuint public totalCollected;\n\n\nmodifier inState(State expectedState){\n    require(state == expectedState,\"Invaild State\");\n    _;\n}\n\nfunction contribute() public payable inState(State.OnGoing){\namounts[msg.sender] += msg.value;\ntotalCollected +=msg.value;\n\nif(totalCollected>=targetAmount){\n\n    collected = true;\n  }\n}\n\n\n\n\nconstructor (string memory name,uint  targetAmount,uint  durationInmin,address  beneficiary) public{\nname=name;\ntargetAmount = targetAmount * 1 ether;\nfundingDeadline = currentTime() +durationInmin * 1 minutes;\nbeneficiary =beneficiary;\nstate = State.OnGoing;\n\n\n}\n\n//create function that tell the contract what is time now\n\nfunction currentTime() internal view returns(uint){\n    return block.timestamp;\n\n}\n\n}",
  "sourcePath": "/Main Hard/BlockChain Projects/Kickstarter_Dapp/contracts/crowdfund.sol",
  "compiler": {
    "name": "solc",
    "version": "0.5.16+commit.9c3226ce.Emscripten.clang"
  },
  "schemaVersion": "3.3.4",
  "updatedAt": "2021-04-04T10:31:23.667Z",
  "devdoc": {
    "methods": {}
  },
  "userdoc": {
    "methods": {}
  }
}