{
  "contractName": "crowdfundTest",
  "abi": [
    {
      "inputs": [
        {
          "internalType": "string",
          "name": "contractName",
          "type": "string"
        },
        {
          "internalType": "uint256",
          "name": "targetAmount",
          "type": "uint256"
        },
        {
          "internalType": "uint256",
          "name": "durationMinutes",
          "type": "uint256"
        },
        {
          "internalType": "address",
          "name": "beneficiaryAdresss",
          "type": "address"
        }
      ],
      "payable": false,
      "stateMutability": "nonpayable",
      "type": "constructor"
    },
    {
      "anonymous": false,
      "inputs": [
        {
          "indexed": false,
          "internalType": "address",
          "name": "addr",
          "type": "address"
        },
        {
          "indexed": false,
          "internalType": "uint256",
          "name": "totalCollected",
          "type": "uint256"
        },
        {
          "indexed": false,
          "internalType": "bool",
          "name": "succeeded",
          "type": "bool"
        }
      ],
      "name": "CampaignFinished",
      "type": "event"
    },
    {
      "constant": true,
      "inputs": [
        {
          "internalType": "address",
          "name": "",
          "type": "address"
        }
      ],
      "name": "amounts",
      "outputs": [
        {
          "internalType": "uint256",
          "name": "",
          "type": "uint256"
        }
      ],
      "payable": false,
      "stateMutability": "view",
      "type": "function"
    },
    {
      "constant": true,
      "inputs": [],
      "name": "beforeDeadline",
      "outputs": [
        {
          "internalType": "bool",
          "name": "",
          "type": "bool"
        }
      ],
      "payable": false,
      "stateMutability": "view",
      "type": "function"
    },
    {
      "constant": true,
      "inputs": [],
      "name": "beneficiary",
      "outputs": [
        {
          "internalType": "address payable",
          "name": "",
          "type": "address"
        }
      ],
      "payable": false,
      "stateMutability": "view",
      "type": "function"
    },
    {
      "constant": false,
      "inputs": [],
      "name": "collect",
      "outputs": [],
      "payable": false,
      "stateMutability": "nonpayable",
      "type": "function"
    },
    {
      "constant": true,
      "inputs": [],
      "name": "collected",
      "outputs": [
        {
          "internalType": "bool",
          "name": "",
          "type": "bool"
        }
      ],
      "payable": false,
      "stateMutability": "view",
      "type": "function"
    },
    {
      "constant": false,
      "inputs": [],
      "name": "contribute",
      "outputs": [],
      "payable": true,
      "stateMutability": "payable",
      "type": "function"
    },
    {
      "constant": false,
      "inputs": [],
      "name": "finishFunds",
      "outputs": [],
      "payable": false,
      "stateMutability": "nonpayable",
      "type": "function"
    },
    {
      "constant": true,
      "inputs": [],
      "name": "fundingDeadline",
      "outputs": [
        {
          "internalType": "uint256",
          "name": "",
          "type": "uint256"
        }
      ],
      "payable": false,
      "stateMutability": "view",
      "type": "function"
    },
    {
      "constant": true,
      "inputs": [],
      "name": "name",
      "outputs": [
        {
          "internalType": "string",
          "name": "",
          "type": "string"
        }
      ],
      "payable": false,
      "stateMutability": "view",
      "type": "function"
    },
    {
      "constant": true,
      "inputs": [],
      "name": "state",
      "outputs": [
        {
          "internalType": "enum CrowdFund.State",
          "name": "",
          "type": "uint8"
        }
      ],
      "payable": false,
      "stateMutability": "view",
      "type": "function"
    },
    {
      "constant": true,
      "inputs": [],
      "name": "targetAmount",
      "outputs": [
        {
          "internalType": "uint256",
          "name": "",
          "type": "uint256"
        }
      ],
      "payable": false,
      "stateMutability": "view",
      "type": "function"
    },
    {
      "constant": true,
      "inputs": [],
      "name": "totalCollected",
      "outputs": [
        {
          "internalType": "uint256",
          "name": "",
          "type": "uint256"
        }
      ],
      "payable": false,
      "stateMutability": "view",
      "type": "function"
    },
    {
      "constant": false,
      "inputs": [],
      "name": "withdraw",
      "outputs": [],
      "payable": false,
      "stateMutability": "nonpayable",
      "type": "function"
    },
    {
      "constant": false,
      "inputs": [
        {
          "internalType": "uint256",
          "name": "newTime",
          "type": "uint256"
        }
      ],
      "name": "setCurrentTime",
      "outputs": [],
      "payable": false,
      "stateMutability": "nonpayable",
      "type": "function"
    }
  ],
  "bytecode": "0x608060405234801561001057600080fd5b50604051610e1d380380610e1d8339818101604052608081101561003357600080fd5b810190808051604051939291908464010000000082111561005357600080fd5b8382019150602082018581111561006957600080fd5b825186600182028301116401000000008211171561008657600080fd5b8083526020830192505050908051906020019080838360005b838110156100ba57808201518184015260208101905061009f565b50505050905090810190601f1680156100e75780820380516001836020036101000a031916815260200191505b5060405260200180519060200190929190805190602001909291908051906020019092919050505083838383839350670de0b6b3a764000083029250603c820261013561017060201b60201c565b016002819055508090506000600360146101000a81548160ff0219169083600381111561015e57fe5b0217905550505050505050505061017a565b6000600754905090565b610c94806101896000396000f3fe6080604052600436106100dd5760003560e01c8063796b23bb1161007f578063c19d93fb11610059578063c19d93fb1461034b578063d7bb99ba14610384578063e29eb8361461038e578063e5225381146103b9576100dd565b8063796b23bb146102c657806384bcefd4146102f1578063953b8fb814610320576100dd565b80633ccfd60b116100bb5780633ccfd60b1461020457806350081fa81461021b57806355a3b2c11461023257806368bc004114610297576100dd565b806306fdde03146100e257806322f8e5661461017257806338af3eed146101ad575b600080fd5b3480156100ee57600080fd5b506100f76103d0565b6040518080602001828103825283818151815260200191508051906020019080838360005b8381101561013757808201518184015260208101905061011c565b50505050905090810190601f1680156101645780820380516001836020036101000a031916815260200191505b509250505060405180910390f35b34801561017e57600080fd5b506101ab6004803603602081101561019557600080fd5b810190808035906020019092919050505061046e565b005b3480156101b957600080fd5b506101c2610478565b604051808273ffffffffffffffffffffffffffffffffffffffff1673ffffffffffffffffffffffffffffffffffffffff16815260200191505060405180910390f35b34801561021057600080fd5b5061021961049e565b005b34801561022757600080fd5b506102306106fa565b005b34801561023e57600080fd5b506102816004803603602081101561025557600080fd5b81019080803573ffffffffffffffffffffffffffffffffffffffff1690602001909291905050506108e1565b6040518082815260200191505060405180910390f35b3480156102a357600080fd5b506102ac6108f9565b604051808215151515815260200191505060405180910390f35b3480156102d257600080fd5b506102db61090c565b6040518082815260200191505060405180910390f35b3480156102fd57600080fd5b50610306610912565b604051808215151515815260200191505060405180910390f35b34801561032c57600080fd5b50610335610925565b6040518082815260200191505060405180910390f35b34801561035757600080fd5b5061036061092b565b6040518082600381111561037057fe5b60ff16815260200191505060405180910390f35b61038c61093e565b005b34801561039a57600080fd5b506103a3610adb565b6040518082815260200191505060405180910390f35b3480156103c557600080fd5b506103ce610ae1565b005b60008054600181600116156101000203166002900480601f0160208091040260200160405190810160405280929190818152602001828054600181600116156101000203166002900480156104665780601f1061043b57610100808354040283529160200191610466565b820191906000526020600020905b81548152906001019060200180831161044957829003601f168201915b505050505081565b8060078190555050565b600360009054906101000a900473ffffffffffffffffffffffffffffffffffffffff1681565b60018060038111156104ac57fe5b600360149054906101000a900460ff1660038111156104c757fe5b1461053a576040517f08c379a000000000000000000000000000000000000000000000000000000000815260040180806020018281038252600d8152602001807f496e7661696c642053746174650000000000000000000000000000000000000081525060200191505060405180910390fd5b6000600460003373ffffffffffffffffffffffffffffffffffffffff1673ffffffffffffffffffffffffffffffffffffffff16815260200190815260200160002054116105ef576040517f08c379a00000000000000000000000000000000000000000000000000000000081526004018080602001828103825260178152602001807f4e6f7468696e672077617320636f6e747269627574656400000000000000000081525060200191505060405180910390fd5b6000600460003373ffffffffffffffffffffffffffffffffffffffff1673ffffffffffffffffffffffffffffffffffffffff1681526020019081526020016000205490506000600460003373ffffffffffffffffffffffffffffffffffffffff1673ffffffffffffffffffffffffffffffffffffffff168152602001908152602001600020819055503373ffffffffffffffffffffffffffffffffffffffff166108fc829081150290604051600060405180830381858888f193505050506106f65780600460003373ffffffffffffffffffffffffffffffffffffffff1673ffffffffffffffffffffffffffffffffffffffff168152602001908152602001600020819055505b5050565b600080600381111561070857fe5b600360149054906101000a900460ff16600381111561072357fe5b14610796576040517f08c379a000000000000000000000000000000000000000000000000000000000815260040180806020018281038252600d8152602001807f496e7661696c642053746174650000000000000000000000000000000000000081525060200191505060405180910390fd5b61079e6108f9565b156107f4576040517f08c379a000000000000000000000000000000000000000000000000000000000815260040180806020018281038252602a815260200180610c36602a913960400191505060405180910390fd5b600560009054906101000a900460ff16610831576001600360146101000a81548160ff0219169083600381111561082757fe5b0217905550610856565b6002600360146101000a81548160ff0219169083600381111561085057fe5b02179055505b7f6fa7e87ebbd87ed4f1c40bba63144f68fd2bb022fb748ab3b61b5411c39bd47430600654600560009054906101000a900460ff16604051808473ffffffffffffffffffffffffffffffffffffffff1673ffffffffffffffffffffffffffffffffffffffff16815260200183815260200182151515158152602001935050505060405180910390a150565b60046020528060005260406000206000915090505481565b6000600254610906610c2b565b10905090565b60025481565b600560009054906101000a900460ff1681565b60015481565b600360149054906101000a900460ff1681565b600080600381111561094c57fe5b600360149054906101000a900460ff16600381111561096757fe5b146109da576040517f08c379a000000000000000000000000000000000000000000000000000000000815260040180806020018281038252600d8152602001807f496e7661696c642053746174650000000000000000000000000000000000000081525060200191505060405180910390fd5b6109e26108f9565b610a54576040517f08c379a00000000000000000000000000000000000000000000000000000000081526004018080602001828103825260208152602001807f43616e206e6f7420636f6e74726975746520616674657220646561646c696e6581525060200191505060405180910390fd5b34600460003373ffffffffffffffffffffffffffffffffffffffff1673ffffffffffffffffffffffffffffffffffffffff168152602001908152602001600020600082825401925050819055503460066000828254019250508190555060015460065410610ad8576001600560006101000a81548160ff0219169083151502179055505b50565b60065481565b6000806003811115610aef57fe5b600360149054906101000a900460ff166003811115610b0a57fe5b14610b7d576040517f08c379a000000000000000000000000000000000000000000000000000000000815260040180806020018281038252600d8152602001807f496e7661696c642053746174650000000000000000000000000000000000000081525060200191505060405180910390fd5b600360009054906101000a900473ffffffffffffffffffffffffffffffffffffffff1673ffffffffffffffffffffffffffffffffffffffff166108fc6006549081150290604051600060405180830381858888f1935050505015610c035760038060146101000a81548160ff02191690836003811115610bf957fe5b0217905550610c28565b6001600360146101000a81548160ff02191690836003811115610c2257fe5b02179055505b50565b600060075490509056fe43616e206e6f742066696e697368207468652063616d7061696e206265666f726520646561646c696e65a265627a7a723158209e545765134f5d858e376137232282ac298a4cdae635cab718bb344b1a43477364736f6c63430005100032",
  "source": "// SPDX-License-Identifier: MIT\npragma solidity >=0.4.22 <0.9.0;\nimport \"./crowdfund.sol\";\n\ncontract crowdfundTest  is  CrowdFund {\n\nuint time;\n\nconstructor(string memory contractName,uint targetAmount,uint durationMinutes,address beneficiaryAdresss)\n\n CrowdFund(contractName,targetAmount,durationMinutes,beneficiaryAdresss)public{\n\n }\n\n    function currentTime() internal view returns(uint) {\n        return time;\n    }\n\n    function setCurrentTime(uint newTime) public {\n        time = newTime;\n    }\n}\n",
  "sourcePath": "/Main Hard/BlockChain Projects/Kickstarter_Dapp/contracts/crowdfundTest.sol",
  "compiler": {
    "name": "solc",
    "version": "0.5.16+commit.9c3226ce.Emscripten.clang"
  },
  "schemaVersion": "3.3.4",
  "updatedAt": "2021-04-05T14:41:04.673Z",
  "devdoc": {
    "methods": {}
  },
  "userdoc": {
    "methods": {}
  }
}