{
  "contractName": "CrowdFund",
  "abi": [
    {
      "inputs": [
        {
          "internalType": "string",
          "name": "name",
          "type": "string"
        },
        {
          "internalType": "uint256",
          "name": "targetAmount",
          "type": "uint256"
        },
        {
          "internalType": "uint256",
          "name": "durationInmin",
          "type": "uint256"
        },
        {
          "internalType": "address",
          "name": "beneficiary",
          "type": "address"
        }
      ],
      "payable": false,
      "stateMutability": "nonpayable",
      "type": "constructor"
    },
    {
      "anonymous": false,
      "inputs": [
        {
          "indexed": false,
          "internalType": "address",
          "name": "addr",
          "type": "address"
        },
        {
          "indexed": false,
          "internalType": "uint256",
          "name": "totalCollected",
          "type": "uint256"
        },
        {
          "indexed": false,
          "internalType": "bool",
          "name": "succeeded",
          "type": "bool"
        }
      ],
      "name": "CampaignFinished",
      "type": "event"
    },
    {
      "constant": true,
      "inputs": [
        {
          "internalType": "address",
          "name": "",
          "type": "address"
        }
      ],
      "name": "amounts",
      "outputs": [
        {
          "internalType": "uint256",
          "name": "",
          "type": "uint256"
        }
      ],
      "payable": false,
      "stateMutability": "view",
      "type": "function"
    },
    {
      "constant": true,
      "inputs": [],
      "name": "beneficiary",
      "outputs": [
        {
          "internalType": "address payable",
          "name": "",
          "type": "address"
        }
      ],
      "payable": false,
      "stateMutability": "view",
      "type": "function"
    },
    {
      "constant": true,
      "inputs": [],
      "name": "collected",
      "outputs": [
        {
          "internalType": "bool",
          "name": "",
          "type": "bool"
        }
      ],
      "payable": false,
      "stateMutability": "view",
      "type": "function"
    },
    {
      "constant": true,
      "inputs": [],
      "name": "fundingDeadline",
      "outputs": [
        {
          "internalType": "uint256",
          "name": "",
          "type": "uint256"
        }
      ],
      "payable": false,
      "stateMutability": "view",
      "type": "function"
    },
    {
      "constant": true,
      "inputs": [],
      "name": "name",
      "outputs": [
        {
          "internalType": "string",
          "name": "",
          "type": "string"
        }
      ],
      "payable": false,
      "stateMutability": "view",
      "type": "function"
    },
    {
      "constant": true,
      "inputs": [],
      "name": "state",
      "outputs": [
        {
          "internalType": "enum CrowdFund.State",
          "name": "",
          "type": "uint8"
        }
      ],
      "payable": false,
      "stateMutability": "view",
      "type": "function"
    },
    {
      "constant": true,
      "inputs": [],
      "name": "targetAmount",
      "outputs": [
        {
          "internalType": "uint256",
          "name": "",
          "type": "uint256"
        }
      ],
      "payable": false,
      "stateMutability": "view",
      "type": "function"
    },
    {
      "constant": true,
      "inputs": [],
      "name": "totalCollected",
      "outputs": [
        {
          "internalType": "uint256",
          "name": "",
          "type": "uint256"
        }
      ],
      "payable": false,
      "stateMutability": "view",
      "type": "function"
    },
    {
      "constant": false,
      "inputs": [],
      "name": "contribute",
      "outputs": [],
      "payable": true,
      "stateMutability": "payable",
      "type": "function"
    },
    {
      "constant": false,
      "inputs": [],
      "name": "finishFunds",
      "outputs": [],
      "payable": false,
      "stateMutability": "nonpayable",
      "type": "function"
    },
    {
      "constant": true,
      "inputs": [],
      "name": "beforeDeadline",
      "outputs": [
        {
          "internalType": "bool",
          "name": "",
          "type": "bool"
        }
      ],
      "payable": false,
      "stateMutability": "view",
      "type": "function"
    },
    {
      "constant": false,
      "inputs": [],
      "name": "collect",
      "outputs": [],
      "payable": false,
      "stateMutability": "nonpayable",
      "type": "function"
    },
    {
      "constant": false,
      "inputs": [],
      "name": "withdraw",
      "outputs": [],
      "payable": false,
      "stateMutability": "nonpayable",
      "type": "function"
    }
  ],
  "bytecode": "0x608060405234801561001057600080fd5b50604051610db1380380610db18339818101604052608081101561003357600080fd5b810190808051604051939291908464010000000082111561005357600080fd5b8382019150602082018581111561006957600080fd5b825186600182028301116401000000008211171561008657600080fd5b8083526020830192505050908051906020019080838360005b838110156100ba57808201518184015260208101905061009f565b50505050905090810190601f1680156100e75780820380516001836020036101000a031916815260200191505b50604052602001805190602001909291908051906020019092919080519060200190929190505050839350670de0b6b3a764000083029250603c820261013161016860201b60201c565b016002819055508090506000600360146101000a81548160ff0219169083600381111561015a57fe5b021790555050505050610170565b600042905090565b610c328061017f6000396000f3fe6080604052600436106100c25760003560e01c8063796b23bb1161007f578063c19d93fb11610059578063c19d93fb146102f5578063d7bb99ba1461032e578063e29eb83614610338578063e522538114610363576100c2565b8063796b23bb1461027057806384bcefd41461029b578063953b8fb8146102ca576100c2565b806306fdde03146100c757806338af3eed146101575780633ccfd60b146101ae57806350081fa8146101c557806355a3b2c1146101dc57806368bc004114610241575b600080fd5b3480156100d357600080fd5b506100dc61037a565b6040518080602001828103825283818151815260200191508051906020019080838360005b8381101561011c578082015181840152602081019050610101565b50505050905090810190601f1680156101495780820380516001836020036101000a031916815260200191505b509250505060405180910390f35b34801561016357600080fd5b5061016c610418565b604051808273ffffffffffffffffffffffffffffffffffffffff1673ffffffffffffffffffffffffffffffffffffffff16815260200191505060405180910390f35b3480156101ba57600080fd5b506101c361043e565b005b3480156101d157600080fd5b506101da61069a565b005b3480156101e857600080fd5b5061022b600480360360208110156101ff57600080fd5b81019080803573ffffffffffffffffffffffffffffffffffffffff169060200190929190505050610881565b6040518082815260200191505060405180910390f35b34801561024d57600080fd5b50610256610899565b604051808215151515815260200191505060405180910390f35b34801561027c57600080fd5b506102856108ac565b6040518082815260200191505060405180910390f35b3480156102a757600080fd5b506102b06108b2565b604051808215151515815260200191505060405180910390f35b3480156102d657600080fd5b506102df6108c5565b6040518082815260200191505060405180910390f35b34801561030157600080fd5b5061030a6108cb565b6040518082600381111561031a57fe5b60ff16815260200191505060405180910390f35b6103366108de565b005b34801561034457600080fd5b5061034d610a7b565b6040518082815260200191505060405180910390f35b34801561036f57600080fd5b50610378610a81565b005b60008054600181600116156101000203166002900480601f0160208091040260200160405190810160405280929190818152602001828054600181600116156101000203166002900480156104105780601f106103e557610100808354040283529160200191610410565b820191906000526020600020905b8154815290600101906020018083116103f357829003601f168201915b505050505081565b600360009054906101000a900473ffffffffffffffffffffffffffffffffffffffff1681565b600180600381111561044c57fe5b600360149054906101000a900460ff16600381111561046757fe5b146104da576040517f08c379a000000000000000000000000000000000000000000000000000000000815260040180806020018281038252600d8152602001807f496e7661696c642053746174650000000000000000000000000000000000000081525060200191505060405180910390fd5b6000600460003373ffffffffffffffffffffffffffffffffffffffff1673ffffffffffffffffffffffffffffffffffffffff168152602001908152602001600020541161058f576040517f08c379a00000000000000000000000000000000000000000000000000000000081526004018080602001828103825260178152602001807f4e6f7468696e672077617320636f6e747269627574656400000000000000000081525060200191505060405180910390fd5b6000600460003373ffffffffffffffffffffffffffffffffffffffff1673ffffffffffffffffffffffffffffffffffffffff1681526020019081526020016000205490506000600460003373ffffffffffffffffffffffffffffffffffffffff1673ffffffffffffffffffffffffffffffffffffffff168152602001908152602001600020819055503373ffffffffffffffffffffffffffffffffffffffff166108fc829081150290604051600060405180830381858888f193505050506106965780600460003373ffffffffffffffffffffffffffffffffffffffff1673ffffffffffffffffffffffffffffffffffffffff168152602001908152602001600020819055505b5050565b60008060038111156106a857fe5b600360149054906101000a900460ff1660038111156106c357fe5b14610736576040517f08c379a000000000000000000000000000000000000000000000000000000000815260040180806020018281038252600d8152602001807f496e7661696c642053746174650000000000000000000000000000000000000081525060200191505060405180910390fd5b61073e610899565b15610794576040517f08c379a000000000000000000000000000000000000000000000000000000000815260040180806020018281038252602a815260200180610bd4602a913960400191505060405180910390fd5b600560009054906101000a900460ff166107d1576001600360146101000a81548160ff021916908360038111156107c757fe5b02179055506107f6565b6002600360146101000a81548160ff021916908360038111156107f057fe5b02179055505b7f6fa7e87ebbd87ed4f1c40bba63144f68fd2bb022fb748ab3b61b5411c39bd47430600654600560009054906101000a900460ff16604051808473ffffffffffffffffffffffffffffffffffffffff1673ffffffffffffffffffffffffffffffffffffffff16815260200183815260200182151515158152602001935050505060405180910390a150565b60046020528060005260406000206000915090505481565b60006002546108a6610bcb565b10905090565b60025481565b600560009054906101000a900460ff1681565b60015481565b600360149054906101000a900460ff1681565b60008060038111156108ec57fe5b600360149054906101000a900460ff16600381111561090757fe5b1461097a576040517f08c379a000000000000000000000000000000000000000000000000000000000815260040180806020018281038252600d8152602001807f496e7661696c642053746174650000000000000000000000000000000000000081525060200191505060405180910390fd5b610982610899565b6109f4576040517f08c379a00000000000000000000000000000000000000000000000000000000081526004018080602001828103825260208152602001807f43616e206e6f7420636f6e74726975746520616674657220646561646c696e6581525060200191505060405180910390fd5b34600460003373ffffffffffffffffffffffffffffffffffffffff1673ffffffffffffffffffffffffffffffffffffffff168152602001908152602001600020600082825401925050819055503460066000828254019250508190555060015460065410610a78576001600560006101000a81548160ff0219169083151502179055505b50565b60065481565b6000806003811115610a8f57fe5b600360149054906101000a900460ff166003811115610aaa57fe5b14610b1d576040517f08c379a000000000000000000000000000000000000000000000000000000000815260040180806020018281038252600d8152602001807f496e7661696c642053746174650000000000000000000000000000000000000081525060200191505060405180910390fd5b600360009054906101000a900473ffffffffffffffffffffffffffffffffffffffff1673ffffffffffffffffffffffffffffffffffffffff166108fc6006549081150290604051600060405180830381858888f1935050505015610ba35760038060146101000a81548160ff02191690836003811115610b9957fe5b0217905550610bc8565b6001600360146101000a81548160ff02191690836003811115610bc257fe5b02179055505b50565b60004290509056fe43616e206e6f742066696e697368207468652063616d7061696e206265666f726520646561646c696e65a265627a7a723158205e5472527596b5d5ad95c3c7ae59704b01bb9a1c5da5fbc329e51f48b963708f64736f6c63430005100032",
  "source": "pragma solidity >=0.4.22 <0.9.0;\n\ncontract CrowdFund{\n    //States for controll the contract in all fases\n    enum State {\n        OnGoing,Failed,Succedded,PaidOut\n    }\n\nevent CampaignFinished(\n    address addr,\n    uint totalCollected,\n    bool succeeded\n);\n\nstring public name;\nuint public targetAmount;\nuint public fundingDeadline;\naddress payable public beneficiary;\nState public state;\n\n//Funds list\nmapping(address=>uint) public amounts;\n//If collected or not\nbool public collected;\n//How many Contract Collected money\nuint public totalCollected;\n\n\nmodifier inState(State expectedState){\n    require(state == expectedState,\"Invaild State\");\n    _;\n}\n\n\n\n\n\nconstructor (string memory name,uint  targetAmount,uint  durationInmin,address  beneficiary) public{\nname=name;\ntargetAmount = targetAmount * 1 ether;\nfundingDeadline = currentTime() + durationInmin * 1 minutes;\nbeneficiary =beneficiary;\nstate = State.OnGoing;\n\n\n}\n\nfunction contribute() public payable inState(State.OnGoing){\n    require(beforeDeadline(),\"Can not contriute after deadline\");\namounts[msg.sender] += msg.value;\ntotalCollected +=msg.value;\n\nif(totalCollected >=targetAmount){\n\n    collected = true;\n  }\n}\n\nfunction finishFunds()public inState(State.OnGoing){\n    require(!beforeDeadline(),\"Can not finish the campain before deadline\");\n\n    if(!collected){\n        state = State.Failed;\n    }else {\n        state = State.Succedded;\n    }\n    emit CampaignFinished(address(this),totalCollected,collected);\n}\n\nfunction beforeDeadline() public view returns(bool){\n   \n   return currentTime()< fundingDeadline;\n  \n\n}\n\nfunction collect()public inState(State.OnGoing){\n\n        if(beneficiary.send(totalCollected)){\n            state = State.PaidOut;\n        }else {\n            state=State.Failed;\n        }\n\n}\n\n\n function withdraw() public inState(State.Failed) {\n        require(amounts[msg.sender] > 0, \"Nothing was contributed\");\n        uint contributed = amounts[msg.sender];\n        amounts[msg.sender] = 0;\n\n        if (!msg.sender.send(contributed)) {\n            amounts[msg.sender] = contributed;\n        }\n    }\n\n\n\n//create function that tell the contract what is time now\n\nfunction currentTime() internal view returns(uint){\n    return block.timestamp;\n\n}\n\n\n}",
  "sourcePath": "/Main Hard/BlockChain Projects/Kickstarter_Dapp/contracts/crowdfund.sol",
  "compiler": {
    "name": "solc",
    "version": "0.5.16+commit.9c3226ce.Emscripten.clang"
  },
  "schemaVersion": "3.3.4",
  "updatedAt": "2021-04-05T14:41:04.667Z",
  "devdoc": {
    "methods": {}
  },
  "userdoc": {
    "methods": {}
  }
}